:020000040000FA
:06000000C4EF18F012002D
:0600080004EF08F01200F5
:060018000CEF08F01200DD
:06100000C4EF18F012001D
:021006001200D6
:0610080016EF08F01200D3
:0610180019EF08F01200C0
:02101E000100CF
:0C102000A4310000A00000003D00000012
:04102C0004EC0FF0D1
:101030001100D8CFE4FFE0CFE4FFE46E04EC0FF042
:10104000E550E5CFE0FFE5CFD8FF100004D8A3ECD2
:101050000FF00ED9FCD70F0EC11202D83EEF0FF0E1
:10106000D9CFE6FFE1CFD9FF060EE126010EF36EE0
:10107000040EF3CFDBFFF00E936E94688B687E6AEC
:101080007F6AF19E7888788A788C788E0101506B1F
:10109000516B526B536B546B556B566B576B000116
:1010A000A46BA56BA66BA76B02016C6B6CC26BF299
:1010B0006CC26AF26CC269F26F6B6FC26EF26FC281
:1010C0006DF20201686B68C267F268C266F268C2BC
:1010D00065F268C264F268C263F268C262F268C212
:1010E00061F20101436B43C142F143C141F143C18C
:1010F00040F1C5EC0EF04FC149F14FC148F1446BCE
:10110000456B800E466F476FDE6ADD6A9EEC0EF01F
:1011100002E6DDEC0EF055E2F2EC0EF0A7EC0EF07C
:1011200002E6F7EC0EF048E290EC0EF0B60E162652
:10113000000E1722020EDB501624146E030EDB5035
:101140001720156E14C0E6FFE66E030EE66E050E60
:10115000E66EDECF1CF0DDCF1DF0030E1D02F3CFD7
:101160001DF01C02F3CF1CF0F4501D26020EDB50C4
:10117000F3241A6E030EDB501D201B6E050E086E45
:10118000096A1AC00DF01BC00EF0FAEC17F006C089
:1011900018F007C019F006C0E6FF07C0E6FFA9EC8B
:1011A00016F01E6E060EE15E1E50E76E050EECECAC
:1011B0000EF0B4E3DB2AB2D7DF2A010EA7E3DB2A65
:1011C000A5D70001B6514AE0B60548E0020EB65D6B
:1011D00045E0DE6ADD6A9EEC0EF002E6DDEC0EF024
:1011E0003DE2F2EC0EF0A7EC0EF002E6F7EC0EF0AA
:1011F00030E265EC0EF0EF6A050EE66EE66ADECFD1
:1012000018F0DDCF19F0030E1902F3CF19F0180210
:10121000F3CF18F0F4501926020EDB50F324166EAB
:10122000030EDB501920176E050E086E096A16C0F2
:101230000DF017C00EF0FAEC17F006C014F007C05E
:1012400015F0D1EC0EF0050EECEC0EF0CCE3DB2A41
:10125000CAD7DF2A010EBFE3DB2ABDD7060EE15C49
:1012600002E2E16AE552E16EE552E7CFD9FF1200F2
:10127000D9CFE6FFE1CFD9FF0A0EE126200E00010B
:10128000E76E6019E8AE02D0E73402D0E750605D47
:1012900002E2DDEF0DF06450020B02E0DDEF0DF035
:1012A0008150200B200A01E0010E800DF3CF1AF0CF
:1012B0008150400B400A01E0010E400DF3CF19F0C0
:1012C0008150800B800A01E0010E200DF3CF18F051
:1012D0008250800B800A01E0010E100DF3CF17F051
:1012E0008250400B400A01E0010E080DF3CF16F0CA
:1012F0008250080B080A01E0010E040DF3CF15F02F
:101300008250100B100A01E0010EE824146E825086
:10131000200B200A01E0010E1410151016101710F2
:10132000181019101A100001A86F8250010B010A41
:10133000080DF3CF16F08250020B020A01E0010EF5
:10134000040DF3CF15F08250040B040A01E0010EE6
:10135000E824146E8150100B100A01E0010E1410E5
:1013600015101610A96F020EF36E040EF3CFDBFFFB
:10137000050EDB6A0101586B596B5A6B5B6B5C6B3A
:101380005D6B5E6B5F6B606B616BDE6ADD6A9EEC52
:101390000EF002E6DDEC0EF001E313D19EEC0EF050
:1013A00004E6080E145C000E15580EE2010EDF5222
:1013B00006E0DFCFF3FFE846FE0BF306FCE1000199
:1013C000A81514E1000E15D016EC0FF0080E145EEF
:1013D000000E155A010E14C0E7FFE75204E0E8467C
:1013E000FE0BE706FCE10001A91502E0010E01D0A9
:1013F000000EE76E060EE7CFDBFF56EC0EF0EF5067
:10140000020A01E1AFD0030A01E181D0010A01E043
:10141000D2D0060EDB0401E0CED010EC0FF003E1D9
:101420000101408170D056EC0EF01BEC0FF0EF0480
:1014300003E10101408367D010EC0FF0020803E1E3
:101440000101408560D010EC0FF003080AE10101B2
:10145000010E586F5E5157E113EC0FF0EFCF5EF1C4
:1014600052D010EC0FF004080AE10101010E596F8F
:101470005F5149E113EC0FF0EFCF5FF144D010EC76
:101480000FF005080AE10101010E5A6F60513BE1BE
:1014900013EC0FF0EFCF60F136D010EC0FF0060830
:1014A00006E10101010E5B6F61512DE128D010ECC6
:1014B0000FF0070808E10101010E5C6F13EC0FF05B
:1014C000EFCF62F120D010EC0FF0080808E1010125
:1014D000010E5D6F13EC0FF0EFCF63F114D010EC41
:1014E0000FF0090810E113EC0FF0EFCF5EF113ECF1
:1014F0000FF0EFCF5FF113EC0FF0EFCF60F113ECD3
:101500000FF0EFCF61F10001050EDB6F54D0060E36
:10151000DB0451E1D950040FE96EDACFEAFF080E7F
:10152000EE1801E1ED501AE013EC0FF0EF5001015D
:10153000481310EC0FF0E66E040EDBCFE9FF050E4A
:10154000DBCFEAFF480EE926010EEA22E552E7501A
:10155000EF6E040EDB2A050E01E3DB2A0001050E07
:10156000DC6F29D0060EDB0426E110EC0FF0010B36
:1015700002E00101476B10EC0FF0020B02E00101E9
:10158000476910EC0FF0040B02E00101466B10EC10
:101590000FF0080B02E00101466913EC0FF0EF5069
:1015A0000101441383DB1BEC0FF0EF380F0B4513E5
:1015B0000001050EDA6FDF2A010E01E2E8D6DB2A10
:1015C000E6D601015051511102E1000E08D050C180
:1015D000E9FF51C1EAFFEF50800B01E0010E000965
:1015E00001E013D1580520E15E51FCEC0EF0000142
:1015F000AA271550AB23AB351AE2AA513208000EC8
:10160000AB5515E2AAC014F0ABC015F025EC0FF0F5
:1016100079DB06C042F125EC0FF0D4EC17F004C0E2
:10162000AAF005C0ABF003D00001AA6BAB6B0101BF
:10163000590527E15F51E0DB0001AC271550AD23D0
:10164000AD3522E2AC513208000EAD551DE2320E2E
:10165000146E156AACC008F0ADC009F00D6E15C06F
:101660000EF0D4EC17F008C042F1CADBACC008F0B1
:10167000ADC009F0D4EC17F004C0ACF005C0ADF07B
:1016800003D00001AC6BAD6B01015A051DE1605147
:10169000B3DB0001AE271550AF23AF3518E2AE51D2
:1016A0003208000EAF5513E2AEC014F0AFC015F013
:1016B000D2DB28DB06C041F1CEDBD4EC17F004C04E
:1016C000AEF005C0AFF003D00001AE6BAF6B01010F
:1016D0005B0527E1615190DB0001B0271550B12374
:1016E000B13522E2B0513208000EB1551DE2320E82
:1016F000146E156AB0C008F0B1C009F00D6E15C0C7
:101700000EF0D4EC17F008C041F17ADBB0C008F05D
:10171000B1C009F0D4EC17F004C0B0F005C0B1F0CE
:1017200003D00001B06BB16B01015C0528E162518F
:1017300063DB0001B2271550B323B33523E2B25166
:10174000E808030EB3551EE2E80E146E030E156E84
:10175000B2C008F0B3C009F014C00DF00E6ED4ECA6
:1017600017F008C043F157DBB2C008F0B3C009F06E
:10177000D4EC17F004C0B2F005C0B3F003D0000100
:10178000B26BB36B01015D051DE1635135DB0001F7
:10179000B4271550B523B53518E2B451E808030E47
:1017A000B55513E2B4C014F0B5C015F05ADBAADA8F
:1017B00006C043F156DBD4EC17F004C0B4F005C00A
:1017C000B5F003D00001B46BB56B40C16DF241C1FF
:1017D0006EF242C16FF243C170F20101406B416B86
:1017E000426B436B0001DB5100080FE2040EE66E12
:1017F0006D0EE66E020EE66E010EE66E7BDAF3CF3C
:1018000050F1F4CF51F10001DB07010154515511A2
:1018100002E1000E08D054C1E9FF55C1EAFFEF50C4
:10182000800B01E0010E000927E148C161F249C1C6
:1018300062F24AC163F24BC164F24CC165F24DC120
:1018400066F24EC167F24FC168F29FDA4FC148F1AC
:101850000001DC51000810E2080EE66E610EE66E33
:10186000020EE66E010EE66E030E44DAF3CF54F17B
:10187000F4CF55F10001DC0701015651571102E187
:10188000000E08D056C1E9FF57C1EAFFEF50800BA8
:1018900001E0010E00090DE1010EE66E600EE66E3C
:1018A000020EE66EE66A030E25DAF3CF56F1F4CFA8
:1018B00057F101015251531102E1000E08D052C1FB
:1018C000E9FF53C1EAFFEF50800B01E0010E000970
:1018D00021E144C169F245C16AF246C16BF247C1D8
:1018E0006CF2446B456B800E466F476F0001DA5116
:1018F000000810E2040EE66E690EE66E020EE66E59
:10190000010EE66E020EF6D9F3CF52F1F4CF53F189
:101910000001DA070001A451A51102E1000E08D070
:10192000A4C0E9FFA5C0EAFFEF50800B01E0010E63
:10193000000901E042D102017951560A01E1C6D005
:10194000610A01E17CD0B60A64E0010A01E028D115
:10195000050E9E5D01E024D1AA0E9F5D01E020D11D
:10196000550EA05D01E01CD10A0EA15D01E018D169
:101970000F0EA25D01E014D1DE6ADD6ADFD901E657
:101980001CDA01E30DD12EDAE2D901E630DA3CE2CD
:10199000C7D9010E1626000E15DA790EE926020EB9
:1019A000EA22EF50E66E91D9E552E750EF6E050E50
:1019B000E66E8BD9EF50E66EDECF1AF0DDCF1BF06E
:1019C000030E1B02F3CF1BF01A02F3CF1AF0F450F0
:1019D0001B26020EDB50F324186E030EDB501B2077
:1019E000196E050E086E096A18C00DF019C00EF0C8
:1019F000FAEC17F006C016F007C017F0D2D9090E9E
:101A0000EBD9C2E3DB2AC0D7DF2A010EB7E3DB2A1A
:101A1000B5D7810EB96FA8C0BAF20F0E0001A91593
:101A20000201BB6F0001A651A71102E1000E03D015
:101A30009DD901E0010E000901E0B2D0A3D0000160
:101A4000A651A71102E1000E03D090D901E0010ECA
:101A5000000901E0A5D00201370EB96FDE6ADD6A28
:101A60006DD901E6AAD926E2BDD971D901E6BFD95F
:101A70001CE256D9B60E1626000EA4D9EF50E66E1B
:101A8000F6D9F4501526020EDB50F324E96E030E4E
:101A9000DB501520EA6E64D9E552E750EF6E020E76
:101AA000DB2A030EE2E3DB2AE0D7DF2A010ED8E3CC
:101AB000DB2AD6D70001A651A71102E1000E03D000
:101AC00055D901E0010E00096BE15CD0560EB96FEB
:101AD000A00EE66E000EE66E90EC18F0E552E552B0
:101AE000070EF3CFDBFF146ADB50E76E1418E8AE85
:101AF00002D0E73402D0E750145C37E2070EDBCFA8
:101B000015F03E0EE76E1518E8AE02D0153403D07E
:101B1000E750D880155429E3DE6ADD6A87D9070EBD
:101B2000DBCF16F0176A16BE176815501718E8AE07
:101B300002D0173404D01650145C1750155811E217
:101B40007FD9A00EE926000EEA22EF50E66E78D982
:101B500007D9E552E750EF6EDF2A010EDFE3DB2AFB
:101B6000DDD76ED9FDD8EF6A02D00201BA6B000151
:101B7000A651A71102E1000E03D0F8D801E0010E32
:101B800000090EE1400EE66EB90EE66E020EE66E3C
:101B9000010EE66E040EAED8F3CFA6F0F4CFA7F098
:101BA000400EE66E790EE66E020EE66EE66A040EF2
:101BB000A1D8F3CFA4F0F4CFA5F00A0EE15C02E2C5
:101BC000E16AE552E16EE552E7CFD9FF120012005B
:101BD00012001200120043EF17F012001E0EE66E04
:101BE000010ECBD8020EC9D8030EC7D8040EE66E7C
:101BF00038EC10F0E552E552120064840101080E41
:101C0000646F070E656F6407000E655B64516511B4
:101C1000FAE164941200D9CFE6FFE1CFD9FFFD0EBF
:101C2000DBCF08F0FE0EDBCF09F0720E081801E1E1
:101C3000095033E0E868081802E17F0E09182BE02C
:101C4000740E081801E1095024E0750E081801E12E
:101C500009501DE0730E081801E1095016E0030E4B
:101C6000081801E109500FE0020E081801E10950BF
:101C700008E0010E081801E1095001E010D0AEDFC4
:101C80000FD0ABDF0DD0A7DF0BD0A3DF09D09FDFD4
:101C900007D09EDF05D09EDF03D0000001D000D02A
:101CA000010E00D0E552E7CFD9FF1200C9D8030ECC
:101CB000EA02F3CFEAFFE902F3CFE9FFF450EA26A4
:101CC000B60EE926000EEA221200D1D8F3CF14F0A6
:101CD000F4501526B60E1426000E1522020EDB5007
:101CE0001424E96E030EDB501520EA6E1200A3D80F
:101CF000EF501200E66E5CEC10F0146E050EE15E23
:101D000014501200D4EC17F008C014F009C015F0FC
:101D10000868096814C00DF015C00EF0FAEF17F04E
:101D2000DECF16F0DDCF17F0030E1702F3CF17F05A
:101D30001602F3CF16F0F4501726120077D8D89079
:101D400015501200020EE926000EEA221200020EC1
:101D5000DBCF14F0030EDBCF15F0D8901550120036
:101D60006AD8B90EE926020EEA221200A6C0E9FFDF
:101D7000A7C0EAFFEF50800B1200E66E38EC10F0BF
:101D8000E552E5521E0EE66E12004F6B4FC14EF14A
:101D90004FC14DF14FC14CF14FC14BF14FC14AF111
:101DA000120006C0E6FF07C0E6FFF2EC16F0E552AF
:101DB000E552E552E552E76E12000C0E145C000E7F
:101DC000155812001722020EDB501624E96E030E7E
:101DD000DB501720EA6E1200E7CFDBFF020EDB2A92
:101DE000030E1200020EDB6A030EDB6A1200030E02
:101DF000145C000E15581200146E156A145012006F
:101E0000320E0D6E0E6A1200DACFE4FFE652E55292
:101E1000E5CFDAFF1200E80E0D6E030E0E6E120013
:101E200045DF77EF0EF042DFA2EF0EF0DECF14F0C9
:101E3000DDCF15F01200010EE926000EEA22120095
:101E4000DECFE9FFDDCFEAFF1200DADFAAC008F03B
:101E5000ABC009F01200D4DFAEC008F0AFC009F08B
:101E60001200D9DFB4C008F0B5C009F01200DEDFFF
:0C1E7000030E1502F3CF15F0140212004F
:041E7C0083EC15F0EE
:101E8000A0940F015F6B626A536B62EC15F009EC72
:101E900015F0DF6ADF50146E156A140E145C000E24
:101EA000155810E2DF50040DF3CFE9FFF4CFEAFF3D
:101EB000000EE926020EEA22EE6AEE6AEE6AEE6A89
:101EC000DF2AE8D7648C0F015C6B6498649C62A67F
:101ED00007D0629600017F6B846B856B866BF7D7AA
:101EE0000001010E9C6F9D6F9E6B9F6B8C6BDF6A78
:101EF000050EDF5C11E2EA6ADF3486EC15F0EA22B7
:101F0000EE6AED6AEA6ADF348DEC15F0EA22EE6AD9
:101F1000ED6AD2EC14F0ECD70001080E716F020EDE
:101F2000726F0F01160E536F0201500E026F020EF8
:101F3000036F080E016F840E006F0001616B606B10
:101F4000E552A4EF14F083EC15F0000160510BE1B1
:101F5000646A606A09EC15F064B602D06486FCD746
:101F60000001010E606F600508E164BA06D0626A84
:101F7000606A60806088020E606F6250040B05E04A
:101F80006050040B02E0629422DB64B23ED06250E7
:101F9000010B08E06050010B05E070DF0001040E4A
:101FA000606F62906250100B05E06050100B02E011
:101FB00004DB629862AC08D060AC05D021EC15F06F
:101FC000730E91EC14F0629C6250200B04E06050A0
:101FD000200B01E0E1DA6250020B0CE06050020BD2
:101FE00009E021EC15F0E6687F0EE66E94EC15F042
:101FF0000F015F6B040E0001E76E6019E8AE02D0BE
:10200000E73402D0E750605D02E2A1942ED060A6D2
:102010002BD0DF6A040EDF5C27E262A625D063CFF7
:102020008DF000018D51780BE842E842E8428E6F56
:1020300062968DB504D08E519BEC15F003D08E5175
:10204000A0EC15F0EA22EF708E5102E1CCDA0AD052
:10205000000EE66EE66A8D0EE66E000EE66E720EFD
:1020600091EC14F0DF2AD6D7A194E552A4EF14F036
:1020700054EC15F0FD0EDBA403D0E66A11EC15F06C
:10208000FD0EDBA204D0010EE66E11EC15F0FE0E83
:10209000DB50156A530F146E0F0E03EC15F095EC20
:1020A00014F0FD0EDBCFEFFF020EE15C02E2E16A0D
:1020B000E552E16EA4EF14F054EC15F0FD0EDB5088
:1020C00003E08CEC14F002D0C3EC14F0EFEC14F04D
:1020D000D9CFE9FFDACFEAFFEE50ED1003E1F36A62
:1020E000F46A28D095EC14F0AFEC15F0FB0EDBCFC2
:1020F000EEFFFC0EDBCFEDFF95EC14F0EE52FA0E86
:10210000DBCFEFFF400EA5EC15F0880EB4EC15F018
:10211000FD0EDB5003E08CEC14F002D0C3EC14F0A5
:10212000EA22EF74DECF14F0DDCF15F014C0F3FF18
:1021300015C0F4FF020EE15C02E2E16AE552E16ED5
:10214000A4EF14F054EC15F0FE0EDB5003E16BEC41
:1021500015F009D0C8EC14F042EC15F0C8EC14F0FE
:10216000010F42EC15F0020EE15C02E2E16AE55279
:10217000E16EEAD3E4DB64A816D07CEC15F0400EE7
:10218000EE16EE6AEE6AEE6A7CEC15F0EE7CC4DBCD
:10219000EA22EF74400E146E7CEC15F01450EF162A
:1021A0007CEC15F0EF7CD0D300019C5122E1010EB4
:1021B0009C6F9D511EE1010E9D6F020E7C5D07E13B
:1021C000B9DBEE52EF6AB6DBC80EEF6E12007C058B
:1021D00010E18F6BC5DBEE52080EEF6EC1DB4EECEB
:1021E00015F0BEDB840EEF6E010E8F6F91DB800E5B
:1021F000EF6E120000019E6B9F6B020E7C5D06E18C
:10220000A9EC15F0B2DB3DEC15F010D080510201C5
:10221000565D000181510201575904E256C280F017
:1022200057C281F061D886DBA0DB84DBC80EEF6E7D
:10223000120054EC15F0000EDE6E020EDD6EA8DB0F
:10224000040DF4CF15F0D9CFE9FFDACFEAFFF35050
:10225000EE261550ED2269DBEF9EFD0EDB5002E10C
:1022600092DB01D059DBEA22DECFEEFFDDCFEDFFBE
:102270005CDBEF9C5ADB040EE926000EEA22EF8CB1
:10228000020EE15C02E2E16AE552E16E5DD3649820
:1022900000017FBF0DD084AF09D0020E7C6F9F512B
:1022A00001E1A8DF00019D6B9C6B12006BEF15F044
:1022B000020150AF0DD00001010E7C6F9E5101E173
:1022C00099DF00019D6B9C6B9B510DE1D4EF10F0E9
:1022D0000001020E7C6F1CDB840EEF6E9D6B9C6B0D
:1022E0009B5101E161DF120083EC15F0080EDF6EF7
:1022F0000001805D000E81590AE280C0DFFF7B5142
:1023000002E1010E03D07B0502E1020E7B6FDF507C
:10231000156AE850805D806F15508159816F0ADB26
:10232000EE52DFCFEFFF580E896F020E8A6F7FB13A
:102330000DD0DF5017E07DC0F6FF7EC0F7FF7D2B8C
:10234000000E7E230800F5503DDBF3D7DF500AE096
:102350007DC0E9FF7EC0EAFF7D2B000E7E23EF509B
:1023600031DBF4D7E552F0D29FDBFADAEE52EFCF51
:10237000DFFFDFCF14F014500001855D000E865999
:1023800002E285C0DFFFDF50146E156AE850855DFC
:10239000856F15508659866F010EDB6ADF50F36E2C
:1023A000010EDBCFF4FFF350F45C16E2010EDB50BC
:1023B000EA6A580FE96E020EEA22EF50E66E82C01A
:1023C000E9FF83C0EAFF822B000E8323E552E7502A
:1023D000EF6E010EDB2AE2D7000ED8808555000E85
:1023E00086550DE2B6DBC1DABBDAEF50400B03E1F4
:1023F00044DBC80E02D041DB880EEF6E12D088DAC3
:10240000840EEF6E8751881107E005D088C0FAFF6F
:1024100000018751F96EFADF0001849F9B5101E1B1
:10242000C3DE020EE15C02E2E16AE552E16E8CD2AB
:102430006ADB00017F8F46DB500EE66EE66AE66AD5
:10244000000EE66E020E97DA648CDF6A050EDF5C22
:1024500002E2A8DAFBD7010EE66EE66AE66A620ED1
:10246000E66E000E88DA649C0001080E716F020EA1
:10247000726F000E636F020E646F63C065F0666F6B
:1024800052C261F0615102E1100E0BD0010EE66EF6
:10249000E66A610EE66E000EE66E010E42DA00019B
:1024A000200E606FE55250D2800E0201505D38E17F
:1024B0000001C00E7F6F02015351030A1AE0010AA6
:1024C00009E0030A2BE10001700E7D6F2B0E7E6F79
:1024D000120E1ED0C4DA050EF6262D0EAADA020E52
:1024E0000001B6DAF5CF80F0030EB2DAF5CF81F055
:1024F0001200030E525D0FE2B2DA070EF6262D0E21
:1025000098DA7DC0F6FF7EC0F7FF0800F5500001A5
:10251000806F816B120000017F6B120000017F6BE6
:102520001200C2DA0201586B596B50511F0B020A9C
:1025300011E0030A0CE0010A1EE100017F8F020195
:10254000588100018B0517E10201588314D0000166
:102550007F8F11D000017F8F020154BF02D0C2DAF9
:1025600001D0C5DA3CDACBDA06E0DFD9EF50040B54
:1025700002E0010E586F00017FAF07D0580E7D6F4B
:10258000020E7E6F7F81020E806F020EE15C02E21E
:10259000E16AE552E16ED8D10F0153A10CD0E0D928
:1025A000EF50800807E1C6D9EF50840803E1D8D97D
:1025B0008C0EEF6E5391629A12006084629864826E
:1025C0000001010E8C6F11DA750E91EF14F000010D
:1025D0008C6B0BDA740EA5D96492609462A402D05D
:1025E0006294FCD712008FDAFD0E00018D1539E1DF
:1025F0007E0E8D15E8407F0B040DF3CF63F0F4CF12
:1026000064F0000E6327020E642363C065F064C0AB
:1026100066F06575A5D9EF503C0BE842E8420D081D
:102620001EE1DF6A080EDF5C16E29AD9020EE92687
:10263000000EC2D9EF50E66EDF50EA6A500FE96E25
:10264000020EEA22E552E750EF6E8AD988DAEE2AC6
:10265000EF22DF2AE7D784D921DA0AD807D023D896
:1026600005D0FD0E8D15040801E12CD8E5526CD182
:1026700000017B6B9B6B9E6B9F6B8F6B7C6B5AD946
:10268000EF9E717557D9EF9E7175F7D9EF9E7F6BED
:10269000806B816B846B856B866B51D8A6D9030EDA
:1026A00040D947EF11F0020E00017C5D02E1B4EF6A
:1026B00011F07C6B8F5104E12BD98C0EEF6E120060
:1026C0008F6B120020DA36D9EF50400B01E0010E7B
:1026D000DF6E00017175080E605D0BE152C25CFF98
:1026E0000F015C5103E00001100E02D00001040E46
:1026F000606F7C0513E11ED938D9F6DD020E0001AA
:102700007B5D03E117D9840E07D0DF5003E112D9B6
:10271000C80E02D00FD9880EEF6E0FD084AF0CD048
:102720008751881107E005D088C0FAFF0001875162
:10273000F96EFADF0001849F7C6BE55205D102013E
:102740005051600BE842E842E842E842E8420009A2
:1027500001E0120051510C0A45E00B0A3FE00C0A5F
:1027600031E0010A22E00B0A1EE0020A1CE0030A23
:1027700018E0080A10E0010A0CE00F0A08E0030A5A
:1027800001E0120000017F8F080E606F120054EF0D
:1027900012F018EF12F00001610E7D6F000E7E6FD7
:1027A0000CD091EF12F0F3EF13F0545100017D6F54
:1027B0007E6B620E7D27000E7E237F81010E806F6F
:1027C0007F8F120000017F8F02015451EA6A620F6D
:1027D000E96E000EEA2252C2EFFF120006D9020E85
:1027E00091EF14F01200ABD8050EE126020152055C
:1027F00010E150511F0B00090CE100017F8F030E07
:102800000201515D04E10001010E8B6F02D0000155
:102810008B6B0201525101E074D050511F0B020822
:1028200070E154510F0B00096CE054510F0B040878
:1028300068E3200E0001605D64E17F8F020154BFF8
:1028400004D050D9CCD8D7D803D051D9C8D8D7D8EC
:10285000EA22020EEFCFDBFF09D9010B03E1000EE4
:10286000DF9401D0DF8454BF02D03CD901D03FD9DE
:10287000EA22DECFEEFFDDCFEDFF030E515D0CE16E
:102880003ED907E054BF02D0B6D801D0B8D8EA226A
:10289000EF82840E69D935D0DF7431D906E045D88E
:1028A000EF9E43D8EF8C04D902D03FD8EF8CDF7471
:1028B000DDD8020B02E123D90DE0020154BF02D0A2
:1028C0009AD801D09CD8EA22EF923B0E146E3DD9E3
:1028D000EFD802D03B0E39D9020154510F0B156AC3
:1028E000530F146E0F0E1522030E14C0DBFF040EDF
:1028F00015C0DBFF030EDBCFE9FF040EDBCFEAFFE1
:10290000EF90050EE15C02E2E16AE552E16E1CD057
:1029100020D9C4D83DEF15F0FE0EEA6ADB3486EF0D
:1029200015F0E66EE66A94EF15F0DECFE9FFDDCF35
:10293000EAFF120071C0E9FF72C0EAFF1200D9CFAE
:10294000E6FFE1CFD9FF1200E552E7CFD9FF120031
:1029500054510F0BE96EEA6AD890E936EA36120054
:1029600063C0E9FF64C0EAFF1200F9D8580EEE6EAA
:10297000020EED6E1200E66E76EC18F0146E050E87
:10298000E15E14501200FE0EEA6ADB348DEF15F0A2
:10299000FD0EDB50E824166EFE0EDB50040DF350E6
:1029A00016241200DF50CCD8EA22EF6ADF50C3D8D9
:1029B000EA22EF6ADF2A1200EA22EE50EFCFEAFFA6
:1029C000E96E1200E66E89C0E9FF8AC0EAFF892B32
:1029D000000E8A23E552E750EF6EDF061200EA226E
:1029E000EECFDEFFEDCFDDFF1200000EE66EE66AF1
:1029F000E66EE66A120054510F0B9BEF15F054512E
:102A00000F0BA0EF15F0152214C0DEFF15C0DDFF7F
:102A10001200160E616E0F019F0E5B6F7B0E606ED3
:102A20001200FE0EDBCFE6FF19EC11F0E552E55285
:102A30001200F7220900F5CF7DF00A00F5CF7EF0F5
:102A40001200010EE66EE66A000EE66EE66A1200FD
:102A5000F76A7D25F66E7E51F7220800120052516A
:102A6000F66EF76AD890F636F7361200D950020F94
:102A7000E96EDACFEAFFEF50120065C0E9FF66C0E9
:102A8000EAFF1200040DF3CF14F0F4CF15F0000E9E
:102A90001426020EB8DF840EB4EF15F060D8500E85
:102AA000EE6E020EED6E12004ADF020EE1261200FB
:102AB000020EE66EE66ADECFE6FFDDCFE6FF050E2C
:102AC00091EF14F0040EE66EE66AE66A540EE66EC6
:102AD0000F0EBBEF14F01CDF8C0EEF6E2BDF840E9D
:102AE000EF6E120035DF670EE926000E120030DFB0
:102AF000710EE926000E12000FDFDCEF14F015DF77
:102B0000EF50800B12001BDFE6521200FE0BEA367C
:102B1000E96E710EE926000E1200FE0BEA36E96E30
:102B2000670EE926000E12000BEC0EF0146E060E76
:102B3000E15E14501200EA6A950FE96E000E120071
:102B4000EA6A900FE96E000E1200EFDEE850EF1611
:102B5000120093DFEE52080EEF6E3DEF15F0020EFD
:102B6000E926000EEA221200E0DEE850EF12120021
:102B70001201000200000008EA2206000100010222
:102B8000000109028200040100C0320904000001B2
:102B9000030102000921110100012234000705810F
:102BA00003040001090401000203000000092111CF
:102BB00001000122310007058203400001070502E0
:102BC0000340000109040200020301010009211170
:102BD000010001223F0007058303080001070503E8
:102BE0000308000109040300020300000009211189
:102BF000010001221D0007058403400001070504B0
:102C00000340000105010902A1010901A100050914
:102C1000190129031500250195037501810295010C
:102C20007505810105010930093109381581257FB4
:102C3000750895038106C0C005010905A1011500AD
:102C40002501350045017501950C05091901290C6F
:102C500081029504810105010930093126FF0046F2
:102C6000FF00750895028102C005010906A1010552
:102C70000719E029E71500250175019508810295DE
:102C8000017508810395057501050819012905914C
:102C90000295017503910395067508150025E70552
:102CA00007190029E78100C00600FF0901A10119E9
:102CB000012940150026FF00750895408100190183
:102CC00029409100C00403090426034200690074EE
:102CD0000020005400720061006400650020004F75
:102CE000006E00650020004C00540044002E0016C9
:102CF000035200450056004900560045002000558B
:0D2D00000053004200822BC52CC92CEF2C83
:022D0E00A1D84A
:102D1000FD0EDB50A96EA66AA680A8509FD099D858
:102D2000E652DF6AA6B20ED0FD0EDB50A96EFC0E95
:102D3000DB50A86E040EA66E550EA76EAA0EA76EE7
:102D4000A68202D0010EDF6EA6B2FED7DF50E5529A
:102D500085D07FD8050EE126010EDF6EDB6A87D8AD
:102D6000EF6A020EDB6AFC0EDB50F36E020E7AD8BD
:102D70002FE2010EDB6A020E81D8E76E040EE7CF68
:102D8000DBFF020EDB28E76E030EE7CFDBFFFC0E56
:102D9000DB50F36E030E66D80CE2030E6FD8F36EB1
:102DA000040EDB50F35C02E1010EDB2A030EDB2A8A
:102DB000EED7FB0EDB04F36E010E54D806E357D8B2
:102DC000040EDBCFEFFFDF6A03D0020EDB2ACBD786
:102DD000DF50146E050EE15C02E2E16AE552E16E3D
:102DE00014503CD036D8020EE126DF6A010EDB6AB1
:102DF000FB0EDB50F36E010E35D810E2FC0EDBCF7C
:102E0000E6FF010E15D88BDFE552E552E5520009C9
:102E100002E0010EDF6E010EDB2AEAD7DF50146EEE
:102E2000020EE15C02E2E16AE552E16E145016D056
:102E3000DB50E76EFD0EDBCF14F0FE0EDBCF15F09E
:102E4000E7501426000E152214C0E6FF15C0E6FF59
:102E50001200D9CFE6FFE1CFD9FF1200E552E7CF4C
:102E6000D9FF1200DBCFF4FFF350F45C1200F90E2F
:102E7000DBCFE9FFFA0EDBCFEAFF1200D9DF47DF35
:062E8000E552E5521200CC
:0A2E8600020150511F0B010801E08A
:102E90001200060E515D4EE15351230A4BE0010A28
:102EA00021E0030A47E15451030A15E0010A0EE04C
:102EB000030A07E0010A3EE10001940E7D6F2B0E2C
:102EC0000ED00001AD0E7D6F2B0E09D00001CD0E8E
:102ED0007D6F2B0E04D00001ED0E7D6F2B0E7E6FEB
:102EE000090E24D05451030A1BE0010A12E0030A20
:102EF00009E0010A1FE10001040E7D6F2C0E7E6FB8
:102F0000340E14D00001380E7D6F2C0E7E6F310E02
:102F10000DD00001690E7D6F2C0E7E6F3F0E06D026
:102F20000001A80E7D6F2C0E7E6F1D0E806F816BD1
:102F3000C00E7F6F02015051600BE842E842E84248
:102F4000E842E842010801E0120051510B0A26E074
:102F5000080A19E0090A11E0080A05E00B0A23E053
:102F6000080A21E012000001E70E7D6F000E7E6F5F
:102F7000010E806F816BC10E0FD00001800E7F6F3C
:102F800053C2E7F012000001E80E7D6F000E7E6F65
:102F9000010E806F816B810E7F6F12000001800E29
:082FA0007F6F52C2E8F012003D
:082FA800006A0EAEDDEF17F028
:102FB0000D6C0E1EE86A0E22001E09AEE5EF17F03A
:102FC000086C091EE86A0922001E9EEC18F009BE72
:102FD000F5EF17F000AE000C086C091EE86A092234
:102FE000046C051EE86A0522000C00BEECEF17F029
:102FF0000188FF0C09C013F008C012F008500D0240
:10300000F4CF07F0F3CF06F009500E02F4CF09F029
:10301000F3CF08F00D02F3500726F4500822E86AB7
:10302000092212500E02F3500726F4500822E86AD3
:1030300009220EAE20EF18F01250085E1350095A04
:0E30400013AE000C0D50085E0E50095A000C25
:02304E001E0E54
:10305000F66E100EF76E000EF86E00010900F550C6
:10306000E26F0900F550E36F03E1E26701D03DD064
:103070000900F550DD6F0900F550DE6F0900F550CD
:10308000DF6F09000900F550E96E0900F550EA6E9E
:10309000090009000900F550E06F0900F550E16FE3
:1030A00009000900F6CFE4F0F7CFE5F0F8CFE6F03D
:1030B000DDC0F6FFDEC0F7FFDFC0F8FF0001E05320
:1030C00002E1E15307E00900F550EE6EE007F8E297
:1030D000E107F9D7E4C0F6FFE5C0F7FFE6C0F8FF67
:0C30E0000001E207000EE35BBFD7120006
:0430EC00FE0EE3CF22
:1030F000E9FFFF0EE3CFEAFFE9CFF3FFEACFF4FFEA
:10310000FB0EE35003E1FC0EE35009E0FB0EE30687
:1031100002E2FC0EE306FD0EE350EE6EF1D7120064
:10312000FE0EE3CFE9FFFF0EE3CFEAFFF36AF46A96
:0C313000EE5203E0F34AF42AFBD7120031
:04313C00056A046AB2
:10314000100EE76ED89008360936043605360D5055
:10315000045C0E50055805E30D50045E0E50055AF0
:08316000082AE72EF0D7120047
:08316800000EF36E00EE00F012
:10317000030E01D81200EA6002D0EE6AFCD7F350C9
:08318000E9601200EE6AFCD7C1
:0831880011EE00F021EE00F051
:10319000F86A019C27EC18F003EC08F026EC08F024
:0431A000FBD7120047
:0C31A40030303800000000000000000087
:1031B000000000000000000000000000000000000F
:1031C00000000000000000000000000000000000FF
:1031D00000000000000000000000000000000000EF
:0131E00000EE
:020000040030CA
:0100000000FF
:0100010032CC
:0100020021DC
:010003001EDE
:0100050000FA
:010006008178
:0100080003F4
:01000900C036
:01000A0003F2
:01000B00E014
:01000C0003F0
:01000D0040B2
:00000001FF
